{
  "_format": "hh-sol-artifact-1",
  "contractName": "MailboxDynamic",
  "sourceName": "contracts/Mailbox.sol",
  "abi": [
    {
      "anonymous": false,
      "inputs": [
        {
          "indexed": true,
          "internalType": "address",
          "name": "from",
          "type": "address"
        },
        {
          "indexed": true,
          "internalType": "address",
          "name": "to",
          "type": "address"
        },
        {
          "indexed": false,
          "internalType": "string",
          "name": "schema",
          "type": "string"
        },
        {
          "indexed": false,
          "internalType": "string",
          "name": "json",
          "type": "string"
        }
      ],
      "name": "MessageJSON",
      "type": "event"
    },
    {
      "anonymous": false,
      "inputs": [
        {
          "indexed": true,
          "internalType": "address",
          "name": "from",
          "type": "address"
        },
        {
          "indexed": true,
          "internalType": "address",
          "name": "to",
          "type": "address"
        },
        {
          "indexed": false,
          "internalType": "string",
          "name": "schema",
          "type": "string"
        },
        {
          "indexed": false,
          "internalType": "string[]",
          "name": "fieldKeys",
          "type": "string[]"
        },
        {
          "indexed": false,
          "internalType": "string[]",
          "name": "fieldValues",
          "type": "string[]"
        }
      ],
      "name": "MessageKV",
      "type": "event"
    },
    {
      "inputs": [
        {
          "internalType": "address",
          "name": "to",
          "type": "address"
        },
        {
          "internalType": "string",
          "name": "schema",
          "type": "string"
        },
        {
          "internalType": "string",
          "name": "json",
          "type": "string"
        }
      ],
      "name": "sendJson",
      "outputs": [],
      "stateMutability": "nonpayable",
      "type": "function"
    },
    {
      "inputs": [
        {
          "internalType": "address",
          "name": "to",
          "type": "address"
        },
        {
          "internalType": "string",
          "name": "schema",
          "type": "string"
        },
        {
          "internalType": "string[]",
          "name": "fieldKeys",
          "type": "string[]"
        },
        {
          "internalType": "string[]",
          "name": "fieldValues",
          "type": "string[]"
        }
      ],
      "name": "sendKV",
      "outputs": [],
      "stateMutability": "nonpayable",
      "type": "function"
    }
  ],
  "bytecode": "0x608060405234801561001057600080fd5b506104ab806100206000396000f3fe608060405234801561001057600080fd5b50600436106100365760003560e01c80631d4a60041461003b5780637d1f445f14610050575b600080fd5b61004e6100493660046101d1565b610063565b005b61004e61005e366004610297565b6100bb565b846001600160a01b0316336001600160a01b03167f82a182856e319cfd5fded046bbd469c7a88230ab23d1591840401383bdf4a8d9868686866040516100ac949392919061036b565b60405180910390a35050505050565b82811461010e5760405162461bcd60e51b815260206004820152601b60248201527f6b6579732f76616c756573206c656e677468206d69736d617463680000000000604482015260640160405180910390fd5b866001600160a01b0316336001600160a01b03167ff91a8bb1883197e8cbef188679e1a19adbc823e4200050181b4b53d1b935daf188888888888860405161015b9695949392919061042c565b60405180910390a350505050505050565b80356001600160a01b038116811461018357600080fd5b919050565b60008083601f84011261019a57600080fd5b50813567ffffffffffffffff8111156101b257600080fd5b6020830191508360208285010111156101ca57600080fd5b9250929050565b6000806000806000606086880312156101e957600080fd5b6101f28661016c565b9450602086013567ffffffffffffffff8082111561020f57600080fd5b61021b89838a01610188565b9096509450604088013591508082111561023457600080fd5b5061024188828901610188565b969995985093965092949392505050565b60008083601f84011261026457600080fd5b50813567ffffffffffffffff81111561027c57600080fd5b6020830191508360208260051b85010111156101ca57600080fd5b60008060008060008060006080888a0312156102b257600080fd5b6102bb8861016c565b9650602088013567ffffffffffffffff808211156102d857600080fd5b6102e48b838c01610188565b909850965060408a01359150808211156102fd57600080fd5b6103098b838c01610252565b909650945060608a013591508082111561032257600080fd5b5061032f8a828b01610252565b989b979a50959850939692959293505050565b81835281816020850137506000828201602090810191909152601f909101601f19169091010190565b60408152600061037f604083018688610342565b8281036020840152610392818587610342565b979650505050505050565b818352600060208085019450848460051b86018460005b8781101561041f5783830389528135601e198836030181126103d557600080fd5b8701858101903567ffffffffffffffff8111156103f157600080fd5b80360382131561040057600080fd5b61040b858284610342565b9a87019a94505050908401906001016103b4565b5090979650505050505050565b60608152600061044060608301888a610342565b828103602084015261045381878961039d565b9050828103604084015261046881858761039d565b999850505050505050505056fea26469706673582212205193af1289b9172d78590272a73dd2afa07f20a675a2b3db333c51e7e203c4f364736f6c63430008140033",
  "linkReferences": {},
  "deployedLinkReferences": {}
}